:1000000019C033C032C031C030C040C12EC02DC075
:100010002CC051C02AC0CDC028C027C026C025C0D2
:1000200024C023C075C121C020C01FC01EC01DC078
:100030001CC01BC011241FBECFEFD2E0DEBFCDBF5E
:1000400011E0A0E0B1E0ECE0FAE002C005900D9212
:10005000AC3DB107D9F721E0ACEDB1E001C01D9294
:10006000AD3EB207E1F7EAD1CFC4CACF883E33E054
:10007000930738F0885E93406F5F883E33E09307C4
:10008000C8F78436910530F0845691094F5F843665
:100090009105D0F78A30910528F00A972F5F8A30B2
:1000A0009105D8F76093DF014093DE012093DD01D5
:1000B0008093DC0108951F920F920FB60F921124C6
:1000C0008F939F93EF93FF938FEF85B980910001FA
:1000D000909101018130910521F11CF4892B41F0AF
:1000E0005FC082309105B1F1039709F444C058C054
:1000F00081E090E090930101809300014398409A41
:100100000000E091DF01F0E0EE5FFE4F808185B9F5
:1001100080910D0190910E01049709F441C02F9830
:100120003FC082E090E090930101809300014098ED
:10013000419A2F9A0000E091DE01F0E0EE5FFE4F61
:10014000808185B980910D0190910E01049741F550
:100150002F9826C083E090E09093010180930001E6
:100160004198429A0000E091DD01F0E0EE5FFE4F21
:10017000808185B915C0109201011092000142984A
:10018000439A0000E091DC01F0E0EE5FFE4F8081D9
:1001900085B98091E7019091E801019709F42F98C2
:1001A000FF91EF919F918F910F900FBE0F901F9035
:1001B00018951F920F920FB60F9211248F939F9351
:1001C0008091E7019091E801019799F480910D01E8
:1001D00090910E0101968530910529F090930E01C2
:1001E00080930D0106C081E090E090930E01809312
:1001F0000D019F918F910F900FBE0F901F9018953A
:100200001092EA011092E9011092E6011092E501C4
:10021000EAE7F0E0808180648083808186FDFDCF05
:100220008091E5019091E60180319105B1F0E8E718
:10023000F0E0208131814091E9015091EA01240FE1
:10024000351F3093EA012093E90101969093E6016E
:100250008093E5018031910561F78091E9019091EA
:10026000EA01929582958F7089279F7089279093D4
:10027000EA018093E90189EF90E00197F1F700C06E
:1002800000008091E9019091EA0108951F920F9278
:100290000FB60F9211248F939F934F9917C081EE41
:1002A00094E00197F1F700C000008091E701909180
:1002B000E80101968230910529F09093E80180933E
:1002C000E70104C01092E8011092E7014E9919C0AD
:1002D00081EE94E00197F1F700C0000080910D01DC
:1002E00090910E0101968530910529F090930E01B1
:1002F00080930D0106C081E090E090930E01809301
:100300000D019F918F910F900FBE0F901F90189528
:100310001F920F920FB60F9211242F933F938F933A
:100320009F938091C6008093E4018336A9F42091C5
:100330000D0130910E012F5F3F4F2530310529F01F
:1003400030930E0120930D011CC021E030E030936A
:100350000E0120930D0115C08D3699F42091E7010F
:100360003091E8012F5F3F4F2230310529F0309363
:10037000E8012093E70119C01092E8011092E7010B
:1003800014C0873791F48091E2019091E3010196C6
:100390008230910529F09093E3018093E20118C027
:1003A0001092E3011092E20113C0843689F4809127
:1003B000E0019091E10101968230910529F090933E
:1003C000E1018093E00104C01092E1011092E0018C
:1003D0009F918F913F912F910F900FBE0F901F9083
:1003E0001895E0ECF0E0908195FFFDCF8093C6007A
:1003F0000895CF93DF93EC018881882329F021961B
:10040000F0DF89918111FCCFDF91CF910895CF93D7
:10041000DF93EC01D695C795D695C7958FE091E00F
:10042000E8DF209729F081E191E0E3DF2197D9F718
:1004300083E191E0DEDFDF91CF9108958FEF84B902
:1004400015B88FE087B980E788B98EE38AB983EC65
:1004500085B9E8E6F0E0808184608083DA98EDE693
:10046000F0E08081806C8083E1EBF0E0808183604C
:100470008083E0E7F0E0808181608083B89AE1E8E2
:10048000F0E080818B608083109285001092840060
:1004900088E99AE39093890080938800EFE6F0E082
:1004A000808182608083B19AECE7F0E08081876090
:1004B0008083EAE7F0E08081876880838CE0809326
:1004C000C4001092C500E1ECF0E08081886980836F
:1004D000E2ECF0E0808186608083789487E191E0AF
:1004E00088DF87E991E085DF80910D01805D79DF0C
:1004F0008FE891E07EDF8091E701805D72DF84E12B
:1005000091E077DFCCE7D0E00F2EF6E09F2EF02DC4
:100510000F2EF5E0AF2EF02D6894BB24B2F817E053
:100520000F2EF7EECF2EF1E0DF2EF02D0F2EFDE097
:10053000EF2EF1E0FF2EF02D80910D0190910E0134
:1005400082309105D9F018F4019741F069C08330E9
:10055000910539F1049709F444C062C08BB1877CDE
:100560008BB95A9A18834CDE9093EC018093EB017F
:1005700000E020E040E060E079DD52C08BB18B7C90
:100580008BB95B9A988288818E7F888339DE9093BD
:10059000EC018093EB0100E020E040E060E066DDEC
:1005A0003FC08BB1837D8BB95C9AA88288818D7F97
:1005B000888326DEBC01990F880B990B36D125E381
:1005C0003EE542E050E495D102D1DC01CB019093AD
:1005D000EC018093EB0100E020E040E060E046DDCC
:1005E0001FC08BB1837E8BB95D9AB88288818C7F66
:1005F000888306DEBC01990F880B990B16D12AEF70
:100600003EE742E050E475D1E2D0DC01CB019093AB
:10061000EC018093EB0100E020E040E060E026DDAB
:100620008091E0019091E101019729F48091EB0123
:100630009091EC01ECDE8091E401833669F487E966
:1006400091E0D7DEF7018081805DCBDE84E191E02F
:10065000D0DE1092E40130C08D36B9F480E991E02B
:10066000C8DEF6018081805DBCDE84E191E0C1DE00
:1006700086E991E0BEDEF7018081805DB2DE84E133
:1006800091E0B7DE1092E4012DC08091E40187373C
:1006900099F480EA91E0ADDE8091E2019091E3016E
:1006A000019721F48CEA91E0A4DE03C082EB91E093
:1006B000A0DE1092E40116C08091E401843691F42A
:1006C00089EB91E096DE8091E0019091E101019744
:1006D00021F48CEA91E08DDE03C082EB91E089DEAB
:1006E0001092E4018091E2019091E301019709F0F9
:1006F00023CF85EC91E07DDEF7018081805D71DEA6
:1007000080ED91E076DE80910D0190910E018230B6
:100710009105F1F018F4019739F055C08330910537
:1007200059F10497E9F14FC08091DF01805D59DEF6
:1007300084ED91E05EDE8091DE01805D52DE80918D
:10074000DD01805D4EDE8091DC01805D4ADE3BC0D4
:100750008091DF01805D45DE84ED91E04ADE80918D
:10076000DE01805D3EDE8091DD01805D3ADE8091BC
:10077000DC01805D36DE27C08091DF01805D31DEE7
:1007800084ED91E036DE8091DE01805D2ADE80918D
:10079000DD01805D26DE8091DC01805D22DE13C0FC
:1007A0008091DF01805D1DDE8091DE01805D19DEBC
:1007B00084ED91E01EDE8091DD01805D12DE80918E
:1007C000DC01805D0EDE86ED91E013DEB5CE70D0EB
:1007D00088F09F5790F0B92F9927B751A0F0D1F02A
:1007E000660F771F881F991F1AF0BA95C9F712C0B4
:1007F000B13081F077D0B1E0089574C0672F782FC1
:100800008827B85F39F0B93FCCF38695779567951F
:10081000B395D9F73EF490958095709561957F4F8B
:100820008F4F9F4F0895E89409C097FB3EF4909531
:100830008095709561957F4F8F4F9F4F9923A9F0B9
:10084000F92F96E9BB279395F69587957795679548
:10085000B795F111F8CFFAF4BB0F11F460FF1BC08C
:100860006F5F7F4F8F4F9F4F16C0882311F096E91F
:1008700011C0772321F09EE8872F762F05C06623CD
:1008800071F096E8862F70E060E02AF09A95660F86
:10089000771F881FDAF7880F9695879597F908953F
:1008A00057FD9058440F551F59F05F3F71F0479521
:1008B000880F97FB991F61F09F3F79F08795089506
:1008C000121613061406551FF2CF4695F1DF08C025
:1008D000161617061806991FF1CF86957105610542
:1008E00008940895E894BB2766277727CB0197F9EA
:1008F00008950BD078C069D028F06ED018F09523F9
:1009000009F05AC05FC01124EECFCADFA0F3959F53
:10091000D1F3950F50E0551F629FF001729FBB27E6
:10092000F00DB11D639FAA27F00DB11DAA1F649F92
:100930006627B00DA11D661F829F2227B00DA11D45
:10094000621F739FB00DA11D621F839FA00D611DCB
:10095000221F749F3327A00D611D231F849F600DEC
:10096000211D822F762F6A2F11249F5750408AF025
:10097000E1F088234AF0EE0FFF1FBB1F661F771FB1
:10098000881F91505040A9F79E3F510570F014C048
:10099000AACF5F3FECF3983EDCF386957795679599
:1009A000B795F795E7959F5FC1F7FE2B880F911DCF
:1009B0009695879597F9089597F99F6780E870E075
:1009C00060E008959FEF80EC089500240A941616C5
:1009D000170618060906089500240A94121613062D
:1009E000140605060895092E0394000C11F48823BB
:1009F00052F0BB0F40F4BF2B11F460FF04C06F5FD7
:0C0A00007F4F8F4F9F4F0895F894FFCF59
:100A0C000100C0F9A4B0999282F88090FF01007C9B
:100A1C000020002E0D0A005072657373205B635D1D
:100A2C0020746F2073776974636820696E20646921
:100A3C0066666572656E74206368616E6E656C20A7
:100A4C00616E64207072657373205B6D5D20746FD2
:100A5C002073776974636820696E206175746F2FD9
:100A6C006D616E75616C206D6F64652C20746F20E8
:100A7C0077726974652F73746F70205B775D206477
:100A8C006174612077697468204144430D0A002029
:100A9C006D6F64652D00206368616E6E656C2D0052
:100AAC00777269746520414443202D00206F6E0DD0
:100ABC000A00206F66660D0A006472697665204133
:100ACC004443202D00766F6C746167652D200A00FD
:0C0ADC0020200A002E0020560D0A000009
:00000001FF
